:1000000059C0000072C0000070C000006EC0000047
:100010006CC000006AC0000068C0000066C000003C
:1000200064C0000062C0000060C000005EC000004C
:100030005CC000005AC0000058C0000056C000005C
:1000400054C0000052C0000050C0000005C20000B3
:100050004CC000004AC0000048C0000046C000007C
:1000600044C0000042C0000040C000003EC000008C
:100070003CC20000A8C1000038C0000036C000002B
:1000800034C0000032C0000030C000002EC00000AC
:100090002CC000002AC0000028C0000026C00000BC
:1000A00024C0000022C0000020C000001EC00000CC
:1000B0001CC0000011241FBECFEFD8E0DEBFCDBFB3
:1000C00011E0A0E0B1E0EEECF6E002C005900D9288
:1000D000A436B107D9F721E0A4E6B1E001C01D9232
:1000E000AB38B207E1F774D0F0C28ACFCF93DF9379
:1000F00000D01F92CDB7DEB79A8389836B83898145
:100100009A8190938301809382018B8180937F01F8
:100110001092880110927C0189EC90E029EC30E08B
:10012000F90120812062FC01208300000F900F90D4
:100130000F90DF91CF910895CF93DF9300D01F925E
:10014000CDB7DEB79A8389836B8389819A81909337
:100150008501809384018B818093800110928901B5
:1001600010927D0181EC90E021EC30E0F9012081DA
:100170002062FC01208300000F900F900F90DF9110
:10018000CF910895CF93DF9300D01F92CDB7DEB704
:100190009A8389836B8389819A8190938701809365
:1001A00086018B818093810110928A0110927E01D9
:1001B00089EC90E029EC30E0F90120812068FC0115
:1001C000208300000F900F900F90DF91CF91089542
:1001D000CF93DF93CDB7DEB780E090E06ED280930F
:1001E0007A0181E090E069D280937A0180917A016E
:1001F0008A30A8F480917A01805D80931801809103
:100200007A01805D8093200180917A01805D8093E6
:10021000280180917A01805D8093340180C09091A3
:100220007A018DEC989F812D11248695869586956F
:10023000805D80933C0190917A018DEC989F812D97
:100240001124869586958695880F282F220F220FD8
:10025000820F292F281B822F805D80933D01909172
:100260007A018DEC989F812D11248695869586952F
:10027000805D8093450190917A018DEC989F812D4E
:100280001124869586958695880F282F220F220F98
:10029000820FE92FE81B8E2F805D8093460190919D
:1002A0007A018DEC989F812D1124869586958695EF
:1002B000805D80934E0190917A018DEC989F812D05
:1002C0001124869586958695880F282F220F220F58
:1002D000820FF92FF81B8F2F805D80934F01909133
:1002E0007A018DEC989F812D1124869586958695AF
:1002F000805D80935B0190917A018DEC989F812DB8
:100300001124869586958695880F282F220F220F17
:10031000820F292F281B822F805D80935C017894A7
:1003200085EC90E0FC01108284EC90E027E6FC0173
:10033000208381EC90E028E1FC01208382EC90E0B6
:1003400026E0FC0120838DEC90E0FC0110828CEC17
:1003500090E027E6FC01208389EC90E028E1FC0195
:1003600020838AEC90E026E0FC01208365E080E0B9
:1003700091E0BCDE80917C01882309F4FBCF65E02D
:1003800088E091E0B3DE80917C01882309F4FBCF03
:1003900064E080E191E0AADE80917C01882309F489
:1003A000FBCF6CE084E691E0EDDE80917E01882356
:1003B00009F4FBCF68E080E791E0BEDE80917D012B
:1003C000882379F7FBCF1F920F9200905F000F9266
:1003D00011242F933F938F939F93EF93FF93CF938A
:1003E000DF93CDB7DEB78EEC90E0209182013091A3
:1003F0008301F9012081FC01208380918201909189
:1004000083010196909383018093820180918801FA
:100410008F5F809388019091880180917F01981768
:1004200061F489EC90E029EC30E0F90120812F7D26
:10043000FC01208381E080937C010000DF91CF915B
:10044000FF91EF919F918F913F912F910F9000928B
:100450005F000F901F9018951F920F9200905F0001
:100460000F9211242F933F938F939F93EF93FF93BA
:10047000CF93DF93CDB7DEB786EC90E02091840177
:1004800030918501F9012081FC0120838091840154
:1004900090918501019690938501809384018091CC
:1004A00089018F5F809389019091890180918001FA
:1004B000981761F481EC90E021EC30E0F9012081A3
:1004C0002F7DFC01208381E080937D010000DF917E
:1004D000CF91FF91EF919F918F913F912F910F902D
:1004E00000925F000F901F9018951F920F9200903E
:1004F0005F000F9211242F933F934F935F938F933D
:100500009F93EF93FF93CF93DF9300D000D0CDB7AD
:10051000DEB78091650180936401809166018093CC
:1005200065018091670180936601809168018093E5
:100530006701809169018093680180916A018093CD
:10054000690180916B0180936A0180916C018093B5
:100550006B0180916D0180936C0180916E0180939D
:100560006D0180916F0180936E018EEC90E0FC0133
:10057000808180936F0180916401803809F088C088
:1005800080916501863009F083C0809166018338CF
:1005900009F07EC080916701803309F079C08091B5
:1005A0006A018E3209F074C080916401282F30E016
:1005B00080916501882F90E0280F391F8091660196
:1005C000882F90E0280F391F80916701882F90E0D5
:1005D000820F931F9A83898310927B011C821B8256
:1005E0008B819C8107978CF58B819C8104968C591B
:1005F0009E4FFC0180818093790180917901882F41
:1006000090E029813A81820F931F9A838983809198
:100610007901803320F0809179018B3320F0809133
:1006200079018E3249F4209179018B819C81805926
:100630009E4FFC01208303C081E080937B018B816E
:100640009C8101969C838B83CBCF80917B018823F7
:10065000F9F489819A81907899231CF401979F6F0E
:1006600001969C0180E091E0AC01421B530B9A0182
:1006700080916F01882F90E02817390749F48DE0A9
:10068000809377018CE28093720181E080937E01F8
:1006900000000F900F900F900F90DF91CF91FF917E
:1006A000EF919F918F915F914F913F912F910F907B
:1006B00000925F000F901F901895F999FECF92BDA0
:0E06C00081BDF89A992780B50895F894FFCF70
:1006CE00FA040500FD000000FA040A00F80000001C
:1006DE00800603770000007330670D0A0000007378
:1006EE0030670D0A000000733069642B30300D0A3C
:1006FE000000007330730D0A000000733030670D78
:10070E000A000000733030670D0A000000733030AD
:10071E0069642B30300D0A000000733030730D0AFF
:04072E0000000000C7
:00000001FF
