:1000000059C0000072C0000070C000006EC0000047
:100010006CC000006AC0000068C0000066C000003C
:1000200064C0000062C0000060C000005EC000004C
:100030005CC000005AC0000058C0000056C000005C
:1000400054C0000052C000006DC400003AC300005C
:100050004CC000004AC0000048C0000046C000007C
:1000600044C0000042C0000040C000003EC000008C
:1000700071C30000DDC2000038C0000036C00000BF
:1000800034C0000032C0000030C000002EC00000AC
:100090002CC000002AC0000028C0000026C00000BC
:1000A00024C0000022C0000020C000001EC00000CC
:1000B0001CC0000011241FBECFEFD8E0DEBFCDBFB3
:1000C00011E0A0E0B1E0E2EEFBE002C005900D928D
:1000D000AC34B107D9F721E0ACE4B1E001C01D9226
:1000E000A437B207E1F74ED07AC58ACFCF93DF931A
:1000F00000D01F92CDB7DEB79A8389836B83898145
:100100009A8190936E0180936D018B818093690138
:10011000109272011092650181EC90E021EC30E0C8
:10012000F90120812062FC01208300000F900F90D4
:100130000F90DF91CF910895CF93DF9300D01F925E
:10014000CDB7DEB79A8389836B8389819A81909337
:10015000700180936F018B8180936A01109273010B
:100160001092670181EC90E021EC30E0F9012081F0
:100170002068FC01208300000F900F900F90DF910A
:10018000CF910895CF93DF93CDB7DEB7AA970FB67F
:10019000F894DEBF0FBECDBF84E290E024E230E0F1
:1001A000F90120812062FC01208380E090E00FD5DE
:1001B0008093620181E090E00AD580936201809192
:1001C00062018A30A8F480916201805D8093010110
:1001D00080916201805D8093090180916201805D60
:1001E0008093110180916201805D80931D0180C028
:1001F000909162018DEC989F812D112486958695B2
:100200008695805D80932501909162018DEC989F89
:10021000812D1124869586958695880F282F220F8B
:10022000220F820FF92FF81B8F2F805D80932601FC
:10023000909162018DEC989F812D11248695869571
:100240008695805D80932E01909162018DEC989F40
:10025000812D1124869586958695880F282F220F4B
:10026000220F820F292F281B822F805D80932F0160
:10027000909162018DEC989F812D11248695869531
:100280008695805D80933701909162018DEC989FF7
:10029000812D1124869586958695880F282F220F0B
:1002A000220F820FE92FE81B8E2F805D809338018B
:1002B000909162018DEC989F812D112486958695F1
:1002C0008695805D80934401909162018DEC989FAA
:1002D000812D1124869586958695880F282F220FCB
:1002E000220F820FF92FF81B8F2F805D809345011D
:1002F000789485EC90E0FC01108284EC90E027E695
:10030000FC01208381EC90E028E1FC01208382EC59
:1003100090E026E0FC0120838DEC90E0FC0110824F
:100320008CEC90E027E6FC01208389EC90E028E14A
:10033000FC0120838AEC90E026E0FC01208385E22A
:1003400090E025E230E0F90120812062FC01208369
:1003500065E088E591E0F0DE80916701882309F48B
:10036000FBCF80E090E0AAE7B4E489879A87AB8767
:10037000BC8720E030E04AE753E469857A858B85C5
:100380009C859AD3DC01CB018D879E87AF87B88B84
:1003900020E030E040E85FE36D857E858F859889B9
:1003A0000AD388232CF481E090E09A8B898B3AC0A1
:1003B00020E03FEF4FE757E46D857E858F85988974
:1003C00077D3181634F520E030E040E251E4698537
:1003D0007A858B859C8570D3DC01CB01BC01CD0176
:1003E000EED2DC01CB019A8B898B89899A89892B82
:1003F00019F189E190E09C8B8B8B8B899C8901970B
:10040000F1F79C8B8B8B89899A8901979A8B898BC1
:10041000ECCF6D857E858F859889D1D2DC01CB01AB
:100420009A8B898B89899A899E8B8D8B8D899E89E0
:100430000197F1F79E8B8D8B85E290E025E230E00D
:10044000F9012081207EFC01208380E090E0AAE772
:10045000B4E489839A83AB83BC8320E030E04AE72D
:1004600053E469817A818B819C8126D3DC01CB01A5
:100470008F8B988FA98FBA8F20E030E040E85FE340
:100480006F89788D898D9A8D96D288232CF481E09E
:1004900090E09C8F8B8F3AC020E03FEF4FE757E40E
:1004A0006F89788D898D9A8D03D3181634F520E0E5
:1004B00030E040E251E469817A818B819C81FCD2F9
:1004C000DC01CB01BC01CD017AD2DC01CB019C8FD8
:1004D0008B8F8B8D9C8D892B19F189E190E09E8FFC
:1004E0008D8F8D8D9E8D0197F1F79E8F8D8F8B8DCA
:1004F0009C8D01979C8F8B8FECCF6F89788D898D28
:100500009A8D5DD2DC01CB019C8F8B8F8B8D9C8D66
:1005100098A38F8F8F8D98A10197F1F798A38F8F54
:1005200085E290E025E230E0F90120812062FC01C3
:10053000208365E088E591E0D9DD8091650188231D
:1005400009F4FBCF85E290E025E230E0F90120815B
:10055000207EFC01208380E090E0AAE7B4E48D8354
:100560009E83AF83B88720E030E04AE753E46D8193
:100570007E818F819885A0D2DC01CB0189A39AA3CB
:10058000ABA3BCA320E030E040E85FE369A17AA11F
:100590008BA19CA110D288232CF481E090E09EA333
:1005A0008DA33BC020E03FEF4FE757E469A17AA15C
:1005B0008BA19CA17DD218163CF520E030E040E2F2
:1005C00051E46D817E818F81988576D2DC01CB01EB
:1005D000BC01CD01F4D1DC01CB019EA38DA38DA183
:1005E0009EA1892B09F431CF89E190E098A78FA3D0
:1005F0008FA198A50197F1F798A78FA38DA19EA130
:1006000001979EA38DA3EBCF69A17AA18BA19CA199
:10061000D6D1DC01CB019EA38DA38DA19EA19AA76B
:1006200089A789A59AA50197F1F79AA789A70DCF60
:100630001F920F9200905F000F9211242F933F930F
:100640008F939F93EF93FF93CF93DF93CDB7DEB755
:100650008EEC90E020916B0130916C01F9012081CA
:10066000FC01208380916B0190916C010196909325
:100670006C0180936B01809171018F5F8093710198
:100680009091710180916801981761F489EC90E074
:1006900029EC30E0F90120812F7DFC01208381E0ED
:1006A000809364010000DF91CF91FF91EF919F91C2
:1006B0008F913F912F910F9000925F000F901F90AC
:1006C00018951F920F9200905F000F9211242F93A4
:1006D0003F938F939F93EF93FF93CF93DF93CDB788
:1006E000DEB786EC90E020916D0130916E01F9014A
:1006F0002081FC01208380916D0190916E01019613
:1007000090936E0180936D01809172018F5F809351
:1007100072019091720180916901981761F481ECE6
:1007200090E021EC30E0F90120812F7DFC01208355
:1007300081E0809365010000DF91CF91FF91EF91FF
:100740009F918F913F912F910F9000925F000F909A
:100750001F9018951F920F9200905F000F92112426
:100760002F933F934F935F938F939F93EF93FF93B9
:10077000CF93DF9300D000D0CDB7DEB780914D018D
:1007800080934C0180914E0180934D0180914F01E7
:1007900080934E018091500180934F0180915101CF
:1007A00080935001809152018093510180915301B7
:1007B000809352018091540180935301809155019F
:1007C0008093540180915601809355018091570187
:1007D000809356018EEC90E0FC018081809357015C
:1007E00080914C01803809F088C080914D0186309D
:1007F00009F083C080914E01833809F07EC080915A
:100800004F01803309F079C0809152018E3209F096
:1008100074C080914C01282F30E080914D01882FC9
:1008200090E0280F391F80914E01882F90E0280F0B
:10083000391F80914F01882F90E0820F931F9A8378
:100840008983109263011C821B828B819C81079794
:100850008CF58B819C810496845B9E4FFC0180818A
:100860008093610180916101882F90E029813A8114
:10087000820F931F9A83898380916101803320F0D6
:10088000809161018B3320F0809161018E3249F4B7
:10089000209161018B819C81885A9E4FFC012083AD
:1008A00003C081E0809363018B819C8101969C83CE
:1008B0008B83CBCF809163018823F9F489819A815E
:1008C000907899231CF401979F6F01969C0180E01A
:1008D00091E0AC01421B530B9A0180915701882F84
:1008E00090E02817390749F48DE080935F018CE28E
:1008F00080935A0181E08093660100000F900F9071
:100900000F900F90DF91CF91FF91EF919F918F9179
:100910005F914F913F912F910F9000925F000F9048
:100920001F9018951F920F9200905F000F92112454
:100930002F933F938F939F93EF93FF93CF93DF93E7
:10094000CDB7DEB780916F019091700126EC30E059
:10095000F9012081FC01208380916F019091700149
:1009600001969093700180936F01809173018F5F66
:10097000809373019091730180916A01981761F4DB
:1009800081EC90E021EC30E0F90120812F76FC0130
:10099000208381E0809367010000DF91CF91FF9178
:1009A000EF919F918F913F912F910F9000925F0057
:1009B0000F901F9018952FD008F481E0089557D01C
:1009C00088F09F5790F0B92F9927B751A0F0D1F038
:1009D000660F771F881F991F1AF0BA95C9F712C0C2
:1009E000B13081F05ED0B1E008955BC0672F782F01
:1009F0008827B85F39F0B93FCCF38695779567952E
:100A0000B395D9F73EF490958095709561957F4F99
:100A10008F4F9F4F0895990F0008550FAA0BE0E8DC
:100A2000FEEF16161706E807F907C0F012161306B0
:100A3000E407F50798F0621B730B840B950B39F4F0
:100A40000A2661F0232B242B252B21F408950A2656
:100A500009F4A140A6958FEF811D811D089557FDD2
:100A60009058440F551F59F05F3F71F04795880F1C
:100A700097FB991F61F09F3F79F0879508951216B3
:100A800013061406551FF2CF4695F1DF08C016165F
:100A900017061806991FF1CF869571056105089410
:100AA0000895E894BB2766277727CB0197F9089527
:100AB000B2DF08F48FEF08950BD078C069D028F02A
:100AC0006ED018F0952309F05AC05FC01124EACF08
:100AD000C6DFA0F3959FD1F3950F50E0551F629F9D
:100AE000F001729FBB27F00DB11D639FAA27F00D87
:100AF000B11DAA1F649F6627B00DA11D661F829FAE
:100B00002227B00DA11D621F739FB00DA11D621F92
:100B1000839FA00D611D221F749F3327A00D611DAF
:100B2000231F849F600D211D822F762F6A2F112491
:100B30009F5750408AF0E1F088234AF0EE0FFF1FE4
:100B4000BB1F661F771F881F91505040A9F79E3F1B
:100B5000510570F014C0A6CF5F3FECF3983EDCF374
:100B6000869577956795B795F795E7959F5FC1F758
:100B7000FE2B880F911D9695879597F9089597F903
:100B80009F6780E870E060E008959FEF80EC089533
:100B900000240A941616170618060906089500245C
:100BA0000A9412161306140605060895092E0394D6
:100BB000000C11F4882352F0BB0F40F4BF2B11F44A
:100BC00060FF04C06F5F7F4F8F4F9F4F0895F9996B
:100BD000FECF92BD81BDF89A992780B50895F8940B
:020BE000FFCF45
:100BE2007330670D0A0000007330670D0A000000C1
:100BF200733069642B30300D0A0000007330730DBE
:100C02000A000000733030670D0A000000733030B4
:100C1200670D0A00000073303069642B30300D0A12
:0C0C2200000000733030730D0A00000069
:00000001FF
