S016000044616C6E6F6D65725F32554152542E737265630F
S113000071C000008EC000008CC000008AC00000D7
S113001088C0000086C0000084C0000082C00000C8
S113002080C000007EC000007CC000007AC00000D8
S113003078C0000076C0000074C0000072C00000E8
S113004070C000006EC000006CC000006AC00000F8
S113005068C0000066C0000064C0000062C0000008
S113006060C000005EC00000E3C000005AC0000091
S113007058C0000056C0000054C0000052C0000028
S113008050C000004EC000004CC000004AC0000038
S113009006C1000046C0000044C0000042C0000089
S11300A040C000003EC000003CC000003AC0000058
S11300B038C0000036C0000034C0000032C0000068
S11300C030C000002EC000002CC000002AC0000078
S11300D028C0000026C0000024C0000022C0000088
S11300E020C0000011241FBECFEFD1E2DEBFCDBF80
S11300F000E00CBF12E0A0E0B2E0E8EDF3E000E0C5
S11301000BBF02C007900D92A032B107D9F722E0CD
S1130110A0E2B2E001C01D92A634B207E1F732D0EA
S113012059C16ECF90932A028093290260932B02C7
S11301301092280210922E02E1ECF0E08081886295
S1130140808308959093250280932402609327026C
S11301501092210210922E02E9ECF0E08081886274
S11301608083089590932302809322026093260251
S11301701092200210922C02E1ECF0E08081806960
S113018080830895789487E690E09093C5008093E7
S1130190C4008FE39CE90197F1F700C0000065E01B
S11301A087E192E0CFDF80912E028823F1F38FE381
S11301B09CE90197F1F700C0000065E08FE092E050
S11301C0C1DF80912E028823F1F38FE39CE901972C
S11301D0F1F700C0000065E087E092E0B3DF8091B2
S11301E02E028823F1F38FE39CE90197F1F700C015
S11301F0000064E080E092E0A5DF80912E02882375
S1130200F1F38FE39CE90197F1F700C000006CE083
S11302108AE392E0A7DF80912C028823F1F368E05F
S113022081E392E07FDF80912D028823F1F3EFCF09
S11302301F920F920FB60F9211240BB60F928F9349
S11302409F93EF93FF93E0912902F0912A0280811A
S11302508093C6008091290290912A02019690937E
S11302602A0280932902809128028F5F80932802BA
S113027090912B02891308C0E1ECF0E080818F7D1E
S1130280808381E080932E02FF91EF919F918F9163
S11302900F900BBE0F900FBE0F901F9018951F92DA
S11302A00F920FB60F9211240BB60F922F933F9318
S11302B04F935F936F937F938F939F93AF93BF936A
S11302C0CF93EF93FF93EAE3F2E09181908322814D
S11302D0218333813283448143838581848386816E
S11302E0858357815683808587838185808782852E
S11302F08187838582876091CE0063878091200205
S11303008F5F809320027091260287134FC090382C
S113031009F04CC0263009F049C0333809F046C012
S1130320403309F043C05E3209F040C0EEE3F2E02E
S1130330A1E3B2E045E452E070E029E331E0C1E03A
S11303408191280F311D90ED980F9B3010F08E3263
S113035011F48C9301C07C2F1196E417F50781F7F3
S113036070932F0280933002711118C030783323B8
S11303702CF4215031093F6F2F5F3F4F80E091E013
S1130380AC01421B530B862F90E04817590731F4F8
S1130390E1E3F2E08DE087838CE28283E1ECF0E03C
S11303A080818F76808381E080932E02FF91EF918C
S11303B0CF91BF91AF919F918F917F916F915F91F9
S11303C04F913F912F910F900BBE0F900FBE0F9046
S10B03D01F901895F894FFCF6B
S11303D880060377000000FA040A00F8000000FA17
S11303E8040500FD000000FA040C02F400000000FB
S9030000FC
