S016000044616C6E6F6D65725F32554152542E737265630F
S113000059C0000072C0000070C000006EC0000043
S11300106CC000006AC0000068C0000066C0000038
S113002064C0000062C0000060C000005EC0000048
S11300305CC000005AC0000058C0000056C0000058
S113004054C0000052C0000050C000009DC1000018
S11300504CC000004AC0000048C0000046C0000078
S113006044C0000042C0000040C000003EC0000088
S1130070D4C1000040C1000038C0000036C00000F8
S113008034C0000032C0000030C000002EC00000A8
S11300902CC000002AC0000028C0000026C00000B8
S11300A024C0000022C0000020C000001EC00000C8
S11300B01CC0000011241FBECFEFD8E0DEBFCDBFAF
S11300C011E0A0E0B1E0EEEFF5E002C005900D9282
S11300D0A036B107D9F721E0A0E6B1E001C01D9236
S11300E0A838B207E1F774D088C28ACFCF93DF93E0
S11300F000D01F92CDB7DEB79A8389836B83898141
S11301009A819093800180937F018B8180937C01FD
S1130110109285011092790189EC90E029EC30E08D
S1130120F90120812062FC01208300000F900F90D0
S11301300F90DF91CF910895CF93DF9300D01F925A
S1130140CDB7DEB79A8389836B8389819A81909333
S11301508201809381018B8180937D0110928601BD
S113016010927A0181EC90E021EC30E0F9012081D9
S11301702062FC01208300000F900F900F90DF910C
S1130180CF910895CF93DF9300D01F92CDB7DEB700
S11301909A8389836B8389819A8190938401809364
S11301A083018B8180937E011092870110927B01E1
S11301B089EC90E029EC30E0F90120812068FC0111
S11301C0208300000F900F900F90DF91CF9108953E
S11301D0CF93DF93CDB7DEB780E090E006D2809373
S11301E0760181E090E001D28093760180917601DE
S11301F08A30A8F480917701805D80931801809102
S11302007701805D8093200180917701805D8093E8
S1130210280180917701805D8093320118C080E3CA
S113022080933A0180E380933B0180E38093430110
S113023080E38093440180E380934C0180E38093C6
S11302404D0180E38093570180E3809358017894B3
S113025085EC90E0FC01108284EC90E027E6FC0140
S1130260208381EC90E028E1FC01208382EC90E083
S113027026E0FC0120838DEC90E0FC0110828CECE4
S113028090E027E6FC01208389EC90E028E1FC0162
S113029020838AEC90E026E0FC01208365E080E086
S11302A091E024DF80917901882309F4FBCF65E094
S11302B088E091E01BDF80917901882309F4FBCF6A
S11302C064E080E191E012DF80917901882309F4F0
S11302D0FBCF6CE080E691E055DF80917B018823C1
S11302E009F4FBCF68E08CE691E026DF80917A0187
S11302F0882379F7FBCF1F920F9200905F000F9233
S113030011242F933F938F939F93EF93FF93CF9356
S1130310DF93CDB7DEB78EEC90E020917F01309172
S11303208001F9012081FC01208380917F0190915B
S1130330800101969093800180937F0180918501D3
S11303408F5F809385019091850180917C0198173E
S113035061F489EC90E029EC30E0F90120812F7DF3
S1130360FC01208381E0809379010000DF91CF912B
S1130370FF91EF919F918F913F912F910F90009258
S11303805F000F901F9018951F920F9200905F00CE
S11303900F9211242F933F938F939F93EF93FF9387
S11303A0CF93DF93CDB7DEB786EC90E02091810147
S11303B030918201F9012081FC0120838091810127
S11303C090918201019690938201809381018091A2
S11303D086018F5F809386019091860180917D01D3
S11303E0981761F481EC90E021EC30E0F901208170
S11303F02F7DFC01208381E080937A010000DF914E
S1130400CF91FF91EF919F918F913F912F910F90F9
S113041000925F000F901F9018951F920F9200900A
S11304205F000F9211242F933F934F935F938F9309
S11304309F93EF93FF93CF93DF9300D000D0CDB77A
S1130440DEB78091610180936001809162018093A5
S113045061018091630180936201809164018093C2
S113046063018091650180936401809166018093AA
S11304706501809167018093660180916801809392
S11304806701809169018093680180916A0180937A
S1130490690180916B0180936A018EEC90E0FC010C
S11304A0808180936B0180916001803809F088C05D
S11304B080916101863009F083C0809162018338A4
S11304C009F07EC080916301803309F079C0809186
S11304D066018E3209F074C080916001282F30E0EB
S11304E080916101882F90E0280F391F809162016B
S11304F0882F90E0280F391F80916301882F90E0A6
S1130500820F931F9A838983109278011C821B8225
S11305108B819C8107978CF58B819C810496805AF2
S11305209E4FFC0180818093750180917501882F15
S113053090E029813A81820F931F9A838983809165
S11305407501803320F0809175018B3320F0809108
S113055075018E3249F4209175018B819C818459F7
S11305609E4FFC01208303C081E0809378018B813E
S11305709C8101969C838B83CBCF809178018823C7
S1130580F9F489819A81907899231CF401979F6FDB
S113059001969C0180E091E0AC01421B530B9A014F
S11305A080916B01882F90E02817390749F48DE07A
S11305B0809373018CE280936E0181E080937B01D0
S11305C000000F900F900F900F90DF91CF91FF914B
S11305D0EF919F918F915F914F913F912F910F9048
S11305E000925F000F901F901895F999FECF92BD6D
S11105F081BDF89A992780B50895F894FFCF3D
S11305FEFA040500FD000000FA040A00F8000000E9
S113060E800603770000007330670D0A0000007344
S113061E30670D0A000000733069642B303000001F
S113062E007330730D0A000000733030670D0A003A
S113063E0000733030670D0A0000007330306964B7
S113064E2B3030000000733030730D0A00000000B0
S9030000FC
