S016000044616C6E6F6D65725F32554152542E737265630F
S113000059C0000072C0000070C000006EC0000043
S11300106CC000006AC0000068C0000066C0000038
S113002064C0000062C0000060C000005EC0000048
S11300305CC000005AC0000058C0000056C0000058
S113004054C0000052C0000050C0000062C1000053
S11300504CC000004AC0000048C0000046C0000078
S113006044C0000042C0000040C000003EC0000088
S113007099C1000005C1000038C0000036C000006E
S113008034C0000032C0000030C000002EC00000A8
S11300902CC000002AC0000028C0000026C00000B8
S11300A024C0000022C0000020C000001EC00000C8
S11300B01CC0000011241FBECFEFD8E0DEBFCDBFAF
S11300C011E0A0E0B1E0E8E7F5E002C005900D9290
S11300D0A831B107D9F721E0A8E1B1E001C01D9230
S11300E0AE33B207E1F774D045C28ACFCF93DF9322
S11300F000D01F92CDB7DEB79A8389836B83898141
S11301009A8190933601809335018B8180933201DB
S113011010923B0110922F0189EC90E029EC30E021
S1130120F90120812062FC01208300000F900F90D0
S11301300F90DF91CF910895CF93DF9300D01F925A
S1130140CDB7DEB79A8389836B8389819A81909333
S11301503801809337018B818093330110923C01E5
S11301601092300181EC90E021EC30E0F901208123
S11301702062FC01208300000F900F900F90DF910C
S1130180CF910895CF93DF9300D01F92CDB7DEB700
S11301909A8389836B8389819A8190933A018093AE
S11301A039018B818093340110923D011092310109
S11301B089EC90E029EC30E0F90120812068FC0111
S11301C0208300000F900F900F90DF91CF9108953E
S11301D0CF93DF93CDB7DEB7789485EC90E0FC0144
S11301E0108284EC90E027E6FC01208381EC90E00F
S11301F028E1FC01208382EC90E026E0FC012083CE
S11302008DEC90E0FC0110828CEC90E027E6FC0180
S1130210208389EC90E028E1FC0120838AEC90E0C3
S113022026E0FC01208365E080E091E05FDF8091BF
S11302302F01882309F4FBCF65E088E091E056DFC5
S113024080912F01882309F4FBCF64E080E191E0E1
S11302504DDF80912F01882309F4FBCF6CE088E106
S113026091E090DF80913101882309F4FBCF68E0AD
S113027084E291E061DF80913001882379F7FBCF3C
S11302801F920F9200905F000F9211242F933F93BF
S11302908F939F93EF93FF93CF93DF93CDB7DEB705
S11302A08EEC90E02091350130913601F9012081E6
S11302B0FC01208380913501909136010196909341
S11302C036018093350180913B018F5F80933B0120
S11302D090913B0180913201981761F489EC90E090
S11302E029EC30E0F90120812F7DFC01208381E09D
S11302F080932F010000DF91CF91FF91EF919F91A7
S11303008F913F912F910F9000925F000F901F905B
S113031018951F920F9200905F000F9211242F9353
S11303203F938F939F93EF93FF93CF93DF93CDB737
S1130330DEB786EC90E02091370130913801F90165
S11303402081FC012083809137019091380101962E
S1130350909338018093370180913C018F5F8093A3
S11303603C0190913C0180913301981761F481EC38
S113037090E021EC30E0F90120812F7DFC01208305
S113038081E0809330010000DF91CF91FF91EF91E4
S11303909F918F913F912F910F9000925F000F904A
S11303A01F9018951F920F9200905F000F921124D6
S11303B02F933F934F935F938F939F93EF93FF9369
S11303C0CF93DF9300D000D0CDB7DEB78091190171
S11303D08093180180911A018093190180911B0167
S11303E080931A0180911C0180931B0180911D014F
S11303F080931C0180911E0180931D0180911F0137
S113040080931E018091200180931F01809121011E
S11304108093200180912201809321018091230106
S1130420809322018EEC90E0FC0180818093230173
S113043080911801803809F088C0809119018630B4
S113044009F083C080911A01833809F07EC080913D
S11304501B01803309F079C080911E018E3209F0AE
S113046074C080911801282F30E080911901882FE1
S113047090E0280F391F80911A01882F90E0280FEF
S1130480391F80911B01882F90E0820F931F9A835C
S1130490898310922E011C821B828B819C81079779
S11304A08CF58B819C810496885E9E4FFC01808133
S11304B080932D0180912D01882F90E029813A812C
S11304C0820F931F9A83898380912D01803320F0BA
S11304D080912D018B3320F080912D018E3249F4CF
S11304E020912D018B819C818C5D9E4FFC0120838A
S11304F003C081E080932E018B819C8101969C83B3
S11305008B83CBCF80912E018823F9F489819A8142
S1130510907899231CF401979F6F01969C0180E0C9
S113052091E0AC01421B530B9A0180912301882F67
S113053090E02817390749F48DE080932B018CE271
S11305408093260181E08093310100000F900F9089
S11305500F900F90DF91CF91FF91EF919F918F9129
S11305605F914F913F912F910F9000925F000F90F8
S10B05701F901895F894FFCFC9
S1130578FA040500FD000000FA040A00F80000006F
S10B0588800603770000000067
S9030000FC
